:03000000020030CB
:1000300075A000759000516B516B5100516B516B65
:10004000516B7481513D516B900300515D516B7444
:10005000C1513D516B90030D515D7590FF91005161
:100060006B516B516B51007481513D516B90031872
:10007000515D516B74C1513D516B90030D515D75D4
:10008000908F91009100E5909480FB75904F9100C6
:100090009100E5909440FC75902F91009100E590BF
:1000A0009420FD75901F91009100E5909410FE75CD
:1000B000900FEB75F010A42CF530ED75F010A42E18
:1000C000F531E5308531F0A4F55085F051516B5193
:1000D0006B516B51007481513D516B900327515D01
:1000E000516B74C1513D516B900338515D516BE5BB
:1000F00030F8912AE560514C516BE561514C516BE0
:1001000090033E515D516BE531F8912AE560514C09
:10011000516BE561514C516B91009100516B516BEA
:10012000516B51007481513D516B900345515D51AC
:100130006BE551F8912AE560514C516BE561514CEA
:10014000516BE550F8912AE560514C516BE56151D6
:100150004C516B74C1513D516B900338515D516BE3
:10016000E530F8912AE560514C516BE561514C51F5
:100170006B90033E515D516BE531F8912AE560517A
:0B0180004C516BE561514C516B80FE4F
:1002000075A038C280C281D282516BC282516B7597
:10021000A00CC280C281D282516BC282516B75A088
:1002200001C280C281D282516BC282516B75A0061D
:10023000C280C281D282516BC282516B22F5A0C2B0
:1002400080C281D282516BC282516B22F5A0D280D2
:10025000C281D282516BC282516B516B22C0E0E4E9
:10026000936005514CA380F7D0E022C000C0017814
:0C0270000179FFD9FED8FAD001D000229D
:10030000456E74657220496E70757473004545338F
:1003100033372D323032320052656164696E6720A6
:10032000496E7075747300436F6D707574696E6794
:1003300020526573756C74004E756D313A002C4E09
:0F034000756D323A00526573756C74203D200064
:10040000C0007805910BD8FCD00022C00078FA918A
:1004100016D8FCD00022C00078049121D8FCD0006E
:1004200022C00078F4D8FED00022E875F01084F8DD
:10043000A9F07409C3985008E82437F56002044510
:10044000E82430F5607409C3995008E92437F56150
:09045000020458E92430F5612290
:00000001FF
