:03000000020E06E7
:0C0E0600787FE4F6D8FD75813B020E4DAC
:100ADC005072657373204120666F72204163636F9F
:100AEC00756E7420646973706C617920616E64201A
:100AFC005720666F72207769746864726177696ECB
:100B0C006720636173680D0A0048656C6C6F2C205C
:100B1C00506C6561736520656E746572204163630A
:100B2C006F756E74204E756D6265720D0A004163AF
:100B3C00636F756E7420486F6C6465723A205369EC
:100B4C0074610D0A004163636F756E742042616CB1
:100B5C00616E63653A20000D0A004163636F756E28
:100B6C007420486F6C6465723A20476974610D0A91
:100B7C00004E6F2073756368206163636F756E74CC
:100B8C002C20706C6561736520656E7465722076BF
:100B9C00616C69642064657461696C730D0A00573B
:100BAC00697468647261772073746174652C206554
:100BBC006E746572204163636F756E74204E756D33
:100BCC006265720D0A00456E74657220616D6F75F9
:100BDC006E742C20696E2068756E64726564730D7A
:100BEC000A00496E76616C696420416D6F756E7494
:100BFC000D0A00496E73756666696369656E7420CB
:100C0C0046756E64730D0A0052656D61696E696E8E
:100C1C00672042616C616E63653A2000353030208C
:100C2C004E6F7465733A20002C20313030204E6F9B
:100C3C007465733A20004E6F20737563682061638E
:100C4C00636F756E742C20706C6561736520656EB6
:100C5C007465722076616C69642064657461696C7A
:020C6C00730013
:100F0100C101C10006290000000000000621000007
:100F110000000000022727100235271003320000CD
:0D0F210000032F0000000537000000000055
:100F5A00758920758DF3759850D28ED2ACD2AF2296
:080D58007B007A007921AF361F
:100D60008E128F138B148A1589167C277D10120C16
:100D7000CDEF2430120C87AE12AF137C277D1012FA
:100D80000CCD7E037FE8CFCDCFCECCCE120CCDEFF5
:100D90002430AB14AA15A916900001120C99AE12BA
:100DA000AF137C037DE8120CCD7E007F64CFCDCFE6
:100DB000CECCCE120CCDEF2430AB14AA15A91690D0
:100DC0000002120C99AE12AF137C007D64120CCDA0
:100DD0007E007F0ACFCDCFCECCCE120CCDEF24300B
:100DE000AB14AA15A916900003120C99AE12AF13FA
:100DF0007C007D0A120CCDED2430AB14AA15A91687
:060E0000900004020C99B1
:100E9200AE0CAF0D7C017DF4120D228E0E8F0FAEC3
:100EA2000CAF0D7C017DF4120D227E007F64CFCD4C
:100EB200CFCECCCE120D228E108F117B007A00790C
:010EC2002F00
:100EC3008E128F138B148A1589167C007D0A120CDF
:100ED300CD7E007F0ACFCDCFCECCCE120CCDEF246A
:100EE30030120C87AE12AF137C007D0A120CCDEDCD
:0E0EF3002430AB14AA15A916900001020C9928
:080F84008F993001FDC201222A
:060F2F007BFF7A0B7951F3
:100F35008B128A138914AB12AA13A914120C6E60B2
:100F4500130514E5147002051314F9120C6EFF1243
:050F55000F8480E22280
:090F7A00E4FF3000FDC200AF9954
:010F8300224B
:03002300020F6A5F
:100F6A00309905C299D20132309804C298D200321F
:10080000E4F508F509F50AF50BF50CF50DF50EF50F
:100810000FF510F511120F5AFB7A007929AF28AEA7
:1008200027120D60AE35120D587BFF7A0A79DC1263
:100830000F35120F7A8F08E50864416006E50864F9
:100840006170497BFF7A0B7915120F35120F7A8F81
:1008500009E509B431157BFF7A0B793A120F35128D
:100860000F2F7B007A007929020A3EE5097BFFB44D
:1008700032137A0B7966120F35120F2F7B007A0034
:100880007921020A3E7A0B797D020ACAE50864578B
:100890006006E508647770917BFF7A0B79AB120FE5
:1008A00035120F7A8F09E4F50CF50DE50964316016
:1008B00009E50964326003020AD07BFF7A0B79D222
:1008C000120F35120F7A8F0A120F7A8F0BE50AB4C6
:1008D00030028063E50AB43104740A8046E50AB444
:1008E00032047414803DE50AB43304741E8034E588
:1008F0000AB434047428802BE50AB43504743280B9
:1009000022E50AB43604743C8019E50AB43704744D
:10091000468010E50AB4380474508007E50AB439FB
:100920000D745A250DF50DE4350CF50C80097BFF8F
:100930007A0B79EE120F35E50BB430028069E50BC6
:10094000B4310A050DE50D7002050C805AE50BB4B3
:1009500032047402803DE50BB4330474038034E543
:100960000BB434047404802BE50BB4350474058097
:1009700022E50BB4360474068019E50BB437047411
:10098000078010E50BB4380474088007E50BB43910
:100990000D7409250DF50DE4350CF50C80097BFF70
:1009A0007A0B79EE120F35AE0CAF0D7C007D641220
:1009B0000CBB8E0C8F0DE50964316003020A4AC33B
:1009C000E528950DE50C6480F8E5276480985009CA
:1009D0007BFF7A0B79FF020ACAC3E528950DF5283B
:1009E000E527950CF5277B007A007929AF28FE12C0
:1009F0000D60120E927B007A007932AF0FAE0E12AC
:100A00000EC37BFF7A0C7914120F357B007A0079C4
:100A100029120F357BFF7A0B7963120F357BFF7A32
:100A20000C7928120F357B007A007932120F357B52
:100A3000FF7A0C7934120F357B007A00792F120F70
:100A4000357BFF7A0B7963020ACAC3E536950DE55B
:100A50000C6480F8E53564809850097BFF7A0B7947
:100A6000FF020ACAC3E536950DF536E535950CF556
:100A700035FE120D58120E927B007A007932AF0FBC
:100A8000AE0E120EC37BFF7A0C7914120F357B0069
:100A90007A007921120F357BFF7A0B7963120F35BB
:100AA0007BFF7A0C7928120F357B007A007932129D
:100AB0000F357BFF7A0C7934120F357B007A007981
:100AC0002F120F357BFF7A0B7963120F350208293D
:0C0AD0007BFF7A0C7942120F35020829D6
:100E1200020800E493A3F8E493A34003F68001F2EE
:100E220008DFF48029E493A3F85407240CC8C333E1
:100E3200C4540F4420C8834004F456800146F6DFB0
:100E4200E4800B0102040810204080900F01E47E30
:100E5200019360BCA3FF543F30E509541FFEE493A5
:100E6200A360010ECF54C025E060A840B8E493A36C
:100E7200FAE493A3F8E493A3C8C582C8CAC583CA97
:100E8200F0A3C8C582C8CAC583CADFE9DEE780BE4F
:010F2E0000C2
:100C6E00BB010689828A83E0225002E722BBFE0284
:090C7E00E32289828A83E49322B7
:100C8700BB010689828A83F0225002F722BBFE014C
:020C9700F32246
:100C9900F8BB010DE58229F582E5833AF583E8F091
:100CA900225006E92582C8F622BBFE05E92582C83D
:020CB900F22225
:100CBB00EF8DF0A4A8F0CF8CF0A428CE8DF0A42E4D
:020CCB00FE2207
:100CCD00BC000BBE0029EF8DF084FFADF022E4CC0B
:100CDD00F875F008EF2FFFEE33FEEC33FCEE9DECD4
:100CED00984005FCEE9DFE0FD5F0E9E4CEFD22ED1A
:100CFD00F8F5F0EE8420D21CFEADF075F008EF2F64
:100D0D00FFED33FD4007985006D5F0F222C398FD54
:050D1D000FD5F0EA22F1
:100D2200C2D5EC30E709B2D5E4C39DFDE49CFCEEEC
:100D320030E715B2D5E4C39FFFE49EFE120CCDC38B
:100D4200E49DFDE49CFC8003120CCD30D507C3E486
:060D52009FFFE49EFE225B
:00000001FF
