:03000000020200F9
:1002000075890175A000759000758C00758A007560
:1002100060007135713551CA71357135713574832E
:10022000710771359004007127713574C2710771BF
:100230003590040B712771357590FFC294C295C239
:1002400096C297D100D100D294D28C309003020292
:1002500061308D0A056A758C00758A00D28C0202A5
:100260004BC294858C6B858A6C51CA71357135711E
:10027000357482710771359004187127713574C017
:100280007107713590042671277135E56AF565D1DE
:1002900017E56071167135E561711671359004309E
:1002A00071277135E56BF565D117E560711671350C
:1002B000E56171167135E56CF565D117E56071166C
:1002C0007135E5617116713580FE75A038C280C246
:1002D00081D2827135C282713575A00CC280C28113
:1002E000D2827135C282713575A001C280C281D2BD
:1002F000827135C282713575A006C280C281D282F8
:100300007135C282713522F5A0C280C281D282715C
:1003100035C282713522F5A0D280C281D282713578
:10032000C2827135713522C0E0E49360057116A375
:0B03300080F7D0E022C000C00178017F
:0B033B0079FFD9FED8FAD001D00022D3
:10040000546F67676C6520535731006966204C450F
:100410004420676C6F7773005265616374696F6E17
:100420002054696D6500436F756E742069732000F8
:020430002000AA
:100600007FC8758CD8758AF0C28DD28C308D03026C
:10061000061480F8DFEC22E56575F01084F8A9F087
:100620007409C3985008E82437F560020633E824BB
:1006300030F5607409C3995008E92437F561020662
:0706400046E92430F56122B8
:00000001FF
