:030000000209BB37
:0C09BB00787FE4F6D8FD75810A02080080
:0A09D10041004200430044004500CD
:10087400E4F5A0C282C280C2817F38FE12096D7F76
:10088400047E001208CC7F067E0012096D7F047E70
:10089400001208CC7F0C7E0012096D7F047E0012CA
:1008A40008CC7F017E0012096D7F047E001208CC03
:0708B4007F807E0002096D48
:1008BB0012092A7FE87E031208CC1209427FE87ED8
:0108CB000329
:1008CC00E4FDFCC3ED9FEC9E5015E4FBFA0BBB0062
:0F08DC00010ABA01F8BB7EF50DBD00010C80E4E6
:0108EB0022EA
:10096D00C280C281D2828FA07F0A7E001208CCC2C3
:02097D008222D4
:10097F00D280C281D2828FA07F0A7E001208CCC2A1
:02098F008222C2
:1008EC008B088A09890AAB08AA09A90A120911609E
:1008FC0013050AE50A7002050914F9120911FF1211
:05090C00097F80E222DA
:10092A00900000B2877F017E001208CCA3E582B452
:07093A00DCF1E583B405ECDC
:010941002293
:10094200900000B2877F017E001208CCA3E582B43A
:07095200EEF1E583B402ECB5
:01095900227B
:0D09A1001208C512092A7FE87E030208CC67
:100991001208BB1208C51209427FE87E030208CC87
:10095A001208BB12092A1208C81209427FE87E034C
:03096A000208CCB4
:0D09AE001208BB1209427FE87E030208CC4C
:0A09C7001209427FE87E030208CC0B
:10080000120874D290D291D292D293C294C295C25D
:1008100096C2973090111208747BFF7A0979D11231
:1008200008EC1209A180FE3091111208747BFF7A46
:100830000979D31208EC12099180FE309211120846
:10084000747BFF7A0979D51208EC12095A80FE30C0
:1008500093111208747BFF7A0979D71208EC1209F8
:10086000AE80FE1208747BFF7A0979D91208EC1267
:0408700009C780FE36
:10091100BB010689828A83E0225002E722BBFE02E4
:09092100E32289828A83E4932217
:00000001FF
