:03000000020200F9
:10020000758901757023757145C3E57075F01084AB
:1002100085F062F563C3E57175F0108485F064F5CF
:100220006575F010E562A4F56275F010E563A4F55C
:100230006375F010E564A4F56475F010E565A4F548
:100240006575A0007590009111911171A6911191A1
:10025000119111748571E391119005009103911131
:1002600074C371E3911190052091039111E562F53A
:100270009075F0108475F00884243071F29111E5C6
:10028000F075F00484243071F29111E5F075F002FC
:1002900084243071F29111E5F0243071F29111D182
:1002A0000071A6911191119111748571E3911190D2
:1002B00005089103911174C371E391119005209188
:1002C000039111E563F59075F0108475F0088424AE
:1002D0003071F29111E5F075F00484243071F291DF
:1002E00011E5F075F00284243071F29111E5F024EB
:1002F0003071F29111D10071A69111911191117487
:100300008571E391119005109103911174C371E30C
:10031000911190052091039111E564F59075F0100D
:100320008475F00884243071F29111E5F075F004C1
:0503300084243071F28D
:100335009111E5F075F00284243071F29111E5F028
:10034500243071F29111D10071A691119111911181
:10035500748571E391119005189103911174C3711E
:10036500E3911190052091039111E565F59075F0E4
:10037500108475F00884243071F29111E5F075F060
:100385000484243071F29111E5F075F00284243073
:1003950071F29111E5F0243071F29111D100020250
:1003A5004B75A038C280C281D2829111C28291114F
:1003B50075A00CC280C281D2829111C28291117541
:1003C500A001C280C281D2829111C282911175A011
:1003D50006C280C281D2829111C282911122F5A0FA
:1003E500C280C281D2829111C282911122F5A0D21E
:1003F50080C281D2829111C2829111911122C0E0F5
:10040500E493600571F2A380F7D0E022C000C0013B
:0D041500780179FFD9FED8FAD001D000227D
:100500004C6576656C2031004C6576656C20320058
:100510004C6576656C2033004C6576656C20340044
:0705200056616C75653A009D
:100600007FC8758CD8758AF0C28DD28C308D03026C
:07061000061480F8DFEC2264
:00000001FF
