:100000007550027551057552007553087554017588
:10001000550975560875570375F010E550A4F5900D
:10002000118975F010E551A4F590118975F01074DF
:100030000FA4F590118975F010E552A4F59011897F
:1000400075F010E553A4F590118975F010740FA4A4
:10005000F590118975F010E554A4F590118975F0AB
:1000600010E555A4F590118975F010E556A4F590AA
:10007000118975F010E557A4F590118975F0107489
:100080000FA4F5901189020018C00078051194D8CA
:10009000FCD00022C00078C8119FD8FCD00022C03C
:1000A00000780411AAD8FCD00022C00078F4D8FE51
:0300B000D000225B
:00000001FF
