:03000000020F4BA1
:0C0F4B00787FE4F6D8FD75813B020F9220
:100BB5005072657373204120666F72204163636FC5
:100BC500756E7420646973706C617920616E642040
:100BD5005720666F72207769746864726177696EF1
:100BE5006720636173680D0A0048656C6C6F2C2083
:100BF500506C6561736520656E7465722041636331
:100C05006F756E74204E756D6265720D0A00506CBD
:100C15006561736520656E746572207061737377A5
:100C25006F72640D0A00506C6561736520656E74A2
:100C3500657220636F727265637420706173737778
:100C45006F72640D0A004163636F756E7420486F9F
:100C55006C6465723A20536974610D0A00416363DF
:100C65006F756E742042616C616E63653A20000D8C
:100C75000A004163636F756E7420486F6C6465721A
:100C85003A20476974610D0A004E6F2073756368D9
:100C9500206163636F756E742C20706C656173657C
:100CA50020656E7465722076616C69642064657474
:100CB50061696C730D0A0057697468647261772005
:100CC50073746174652C20656E746572204163636D
:100CD5006F756E74204E756D6265720D0A00506CED
:100CE5006561736520656E74657220636F727265E8
:100CF50063742070617373776F726400506C656103
:100D0500736520656E7465722070617373776F7299
:100D15006400456E74657220616D6F756E742C206C
:100D2500696E2068756E64726564730D0A00496E9C
:100D350076616C696420416D6F756E740D0A0049AA
:100D45006E73756666696369656E742046756E6453
:100D5500730D0A0052656D61696E696E67204261A7
:100D65006C616E63653A2000353030204E6F7465D6
:100D7500733A20002C20313030204E6F7465733A61
:100D850020004E6F2073756368206163636F756E15
:100D9500742C20706C6561736520656E74657220B6
:0E0DA50076616C69642064657461696C73002A
:10104600C101C100062900000000000006210000C1
:101056000000000002272710023527100332000087
:0D10660000032F000000053700000000000F
:1010BD00758920758DF3759850D28ED2ACD2AF2232
:080E9D007B007A007921AF36D9
:100EA5008E178F188B198A1A891B7C277D10120EB5
:100EB50012EF2430120DCCAE17AF187C277D10121F
:100EC5000E127E037FE8CFCDCFCECCCE120E12EF21
:100ED5002430AB19AA1AA91B900001120DDEAE171A
:100EE500AF187C037DE8120E127E007F64CFCDCF54
:100EF500CECCCE120E12EF2430AB19AA1AA91B9034
:100F05000002120DDEAE17AF187C007D64120E12C2
:100F15007E007F0ACFCDCFCECCCE120E12EF24307D
:100F2500AB19AA1AA91B900003120DDEAE17AF1854
:100F35007C007D0A120E12ED2430AB19AA1AA91BEA
:060F4500900004020DDE25
:100FD700AE11AF127C017DF4120E678E138F14AE23
:100FE70011AF127C017DF4120E677E007F64CFCDB6
:100FF700CFCECCCE120E678E158F167B007A007976
:011007002FB9
:101008008E178F188B198A1A891B7C007D0A120E7D
:10101800127E007F0ACFCDCFCECCCE120E12EF2497
:1010280030120DCCAE17AF187C007D0A120E12EDEF
:0E1038002430AB19AA1AA91B900001020DDE8C
:0810DD008F993001FDC20122D0
:061074007BFF7A0C7913EA
:10107A008B178A188919AB17AA18A919120DB36008
:10108A00130519E5197002051814F9120DB3FF12A8
:05109A0010DD80E222E0
:10109F001210B38F0C1210B38F0D1210B38F0E12DC
:0410AF0010B38F0FDC
:0910B300E4FF3000FDC200AF991A
:0110BC002211
:030023000210CDFB
:1010CD00309905C299D20132309804C298D20032BB
:10080000E4F508F509F50AF50BF50CF50DF50EF50F
:100810000FF510F511F512F513F514F515F516127F
:1008200010BDFB7A007929AF28AE27120EA5AE3590
:10083000120E9D7BFF7A0B79B512107A1210B38FCE
:1008400008E50864416009E5086461600302090085
:100850007BFF7A0B79EE12107A1210B38F09E5093B
:100860006431703E12107412109F8F10E50CB46545
:1008700015E50DB46510E50EB4330BE50FB4330682
:10088000E5106437600280427BFF7A0C794B1210CE
:100890007A7BFF7A0C796212107A7B007A007929D0
:1008A0008049E5096432704F12107412109F8F1046
:1008B000E50CB47515E50DB47010E50EB46C0BE5E0
:1008C0000FB46106E510646260097BFF7A0C792B36
:1008D000020BA37BFF7A0C797712107A7BFF7A0CDC
:1008E000796212107A7B007A00792112107A7BFFEC
:1008F0007A0C7974020BA37BFF7A0C798E020BA31E
:10090000E50864576009E508647760030208337BF3
:10091000FF7A0C79BC12107A1210B38F09E4F5112A
:10092000F512E50964316009E50964326003020BE0
:10093000A9E5096431702B12107412109F8F10E515
:100940000CB46515E50DB46510E50EB4330BE50F79
:10095000B43306E5106437603A7BFF7A0C79E30222
:100960000BA37BFF7A0D790112107A12109F8F1062
:10097000E50CB47515E50DB47010E50EB46C0BE51F
:100980000FB46106E510646260097BFF7A0C79E3BD
:10099000020BA37BFF7A0D791712107A1210B38F16
:1009A0000A1210B38F0BE50AB430028063E50AB473
:1009B0003104740A8046E50AB432047414803DE5BB
:1009C0000AB43304741E8034E50AB43404742880F5
:1009D0002BE50AB4350474328022E50AB436047477
:1009E0003C8019E50AB4370474468010E50AB4382F
:1009F0000474508007E50AB4390D745A2512F512B3
:100A0000E43511F51180097BFF7A0D793312107AE4
:100A1000E50BB430028069E50BB4310A0512E5122A
:100A200070020511805AE50BB432047402803DE572
:100A30000BB4330474038034E50BB43404740480C1
:100A40002BE50BB4350474058022E50BB436047431
:100A5000068019E50BB4370474078010E50BB43831
:100A60000474088007E50BB4390D74092512F512DA
:100A7000E43511F51180097BFF7A0D793312107A74
:100A8000AE11AF127C007D64120E008E118F12E544
:100A90000964316003020B23C3E5289512E5116454
:100AA00080F8E52764809850097BFF7A0D7944022D
:100AB0000BA3C3E5289512F528E5279511F5277BAB
:100AC000007A007929AF28FE120EA5120FD77B00FD
:100AD0007A007932AF14AE131210087BFF7A0D79C9
:100AE0005912107A7B007A00792912107A7BFF7AEA
:100AF0000C797412107A7BFF7A0D796D12107A7B63
:100B0000007A00793212107A7BFF7A0D797912100F
:100B10007A7B007A00792F12107A7BFF7A0C797435
:100B2000020BA3C3E5369512E5116480F8E5356440
:100B3000809850097BFF7A0D7944020BA3C3E536F8
:100B40009512F536E5359511F535FE120E9D120F0D
:100B5000D77B007A007932AF14AE131210087BFFF6
:100B60007A0D795912107A7B007A00792112107A65
:100B70007BFF7A0C797412107A7BFF7A0D796D12F3
:100B8000107A7B007A00793212107A7BFF7A0D7925
:100B90007912107A7B007A00792F12107A7BFF7A13
:100BA0000C797412107A0208337BFF7A0D79871260
:050BB000107A02083379
:100F5700020800E493A3F8E493A34003F68001F2A8
:100F670008DFF48029E493A3F85407240CC8C3339B
:100F7700C4540F4420C8834004F456800146F6DF6A
:100F8700E4800B0102040810204080901046E47EA4
:100F9700019360BCA3FF543F30E509541FFEE4935F
:100FA700A360010ECF54C025E060A840B8E493A326
:100FB700FAE493A3F8E493A3C8C582C8CAC583CA51
:100FC700F0A3C8C582C8CAC583CADFE9DEE780BE09
:01107300007C
:100DB300BB010689828A83E0225002E722BBFE023E
:090DC300E32289828A83E4932271
:100DCC00BB010689828A83F0225002F722BBFE0106
:020DDC00F32200
:100DDE00F8BB010DE58229F582E5833AF583E8F04B
:100DEE00225006E92582C8F622BBFE05E92582C8F7
:020DFE00F222DF
:100E0000EF8DF0A4A8F0CF8CF0A428CE8DF0A42E06
:020E1000FE22C0
:100E1200BC000BBE0029EF8DF084FFADF022E4CCC4
:100E2200F875F008EF2FFFEE33FEEC33FCEE9DEC8D
:100E3200984005FCEE9DFE0FD5F0E9E4CEFD22EDD3
:100E4200F8F5F0EE8420D21CFEADF075F008EF2F1D
:100E5200FFED33FD4007985006D5F0F222C398FD0E
:050E62000FD5F0EA22AB
:100E6700C2D5EC30E709B2D5E4C39DFDE49CFCEEA6
:100E770030E715B2D5E4C39FFFE49EFE120E12C3FE
:100E8700E49DFDE49CFC8003120E1230D507C3E4F9
:060E97009FFFE49EFE2215
:00000001FF
