:1000000075F010E550A4F590117175F010E551A44C
:10001000F590117175F010740FA4F590117175F0D1
:1000200010E552A4F590117175F010E553A4F59008
:10003000117175F010740FA4F590117175F010E541
:1000400054A4F590117175F010E555A4F590117157
:1000500075F010E556A4F590117175F010E557A4F0
:10006000F590117175F010740FA4F59011710200E4
:1000700000C00078C8117CD8FCD00022C0007804F1
:100080001187D8FCD00022C00078F4D8FED000221E
:00000001FF
