:03000000020200F9
:1002000075891175A0007590007104710451997180
:100210000471047104748251D6710490040051F683
:1002200071047560EE756140756252B1007560F0E1
:10023000756130756252B1007560F27561B87562B2
:1002400052B1007560F0756130756252B100756031
:10025000F575617275626FB100C287756264758DE4
:10026000D8758BF1C28FD28E308F10D56203020207
:100270007E758DD8758BF1C28FD28E020268756043
:10028000F575617275626FB1007560F475612B75FB
:10029000626FB10002022280FE75A038C280C28166
:1002A000D2827104C282710475A00CC280C281D254
:1002B000827104C282710475A001C280C281D2829F
:1002C0007104C282710475A006C280C281D282719B
:1002D00004C282710422F5A0C280C281D28271045C
:1002E000C282710422F5A0D280C281D2827104C27E
:1002F000827104710422C0E0E493600551E5A3809B
:10030000F7D0E022C000C001780179FFD9FED8FA09
:05031000D001D0002225
:0D040000524F4C4C494E472054494D450089
:10050000758DD8758BF0C28FD28ED28785608C8521
:10051000618AC28DD28CB13DC28785608C85618A2B
:10052000C28DD28CB13D308F10D5620302053C756F
:100530008DD8758BF1C28FD28E02050A22308D03C1
:0605400002054580F822CF
:00000001FF
